:10000000F8C0000026C1000024C1000022C1000089
:1000100020C100001EC100001CC100001AC1000068
:1000200018C1000016C1000014C1000012C1000078
:1000300010C100000EC100000CC100000AC1000088
:1000400008C1000006C1000004C1000002C1000098
:1000500000C10000FEC00000FCC000000C94370985
:10006000F8C000000C94FF0B0C94350CF2C000009B
:10007000F0C00000EEC00000ECC00000EAC00000CC
:10008000E8C00000E6C00000E4C00000E2C00000DC
:100090000C948B0C0C94C10CDCC00000DAC0000086
:1000A000D8C00000D6C00000D4C00000D2C00000FC
:1000B000D0C00000CEC00000CCC00000CAC000000C
:1000C000C8C00000C6C00000E1C500000C94170DB8
:1000D0000C944D0DBEC000000C94A30D0C94D90DD2
:1000E000B8C0000000000A0B02090C0D0E0807033F
:1000F00004010000000000000000000000000000FB
:1001000000000000000000000000000000000000EF
:1001100012111000000000000000000000000000AC
:100120000000000000000000000001021020200874
:100130000810204010204080020102010804020142
:1001400001020408102040808040201008040201B1
:10015000800402018040201008040201080402010A
:100160000102040810204080010204081020408091
:1001700005050505070508080808020202020A0A23
:100180000808040404040101010101010101030341
:10019000030303030303040707070C0C0C0C0C0CEC
:1001A0000C0C0202020206060606060606060B0BE9
:1001B0000B0B0B0B0B0B00002200250028002B0063
:1001C0002E003100340002010000050108010B017E
:1001D00000002100240027002A002D0030003300F9
:1001E00001010000040107010A015E0CEA0C760D12
:1001F000020E11241FBECFEFD1E2DEBFCDBF00E063
:100200000CBF12E0A0E0B2E0E0E1FDE100E00BBFD6
:1002100002C007900D92A635B107D9F725E0A6E5F3
:10022000B2E001C01D92AB36B207E1F710E0C9EFB2
:10023000D0E000E006C021970109802FFE010E9456
:100240007E0EC53FD10780E00807A9F785D50C943D
:10025000860ED6CECF93DF93882349F0EB018150F1
:100260000E94E30999838883DF91CF910895FB0170
:1002700011821082F9CF0F931F938B019C0183E0B1
:1002800036952795179507958A95D1F70A5A1D4FE8
:10029000462F477021E030E0F90102C0EE0FFF1F4A
:1002A0004A95E2F7AF01F80120812423CB010196A2
:1002B000211102C090E080E01F910F9108950F93EB
:1002C0001F938B019C0183E0369527951795079521
:1002D0008A95D1F7677081E090E001C0880F6A9538
:1002E000EAF7F801EA5AFD4F2081452B31F4809559
:1002F000822380831F910F910895822BFACFCF9292
:10030000DF92EF92FF92CF93DF936B017C0160E06D
:1003100086E3C816D104E104F10490F486E38C0D61
:100320000E946C0AE6012196AE01C701B601C7DF43
:10033000CE01DF91CF91FF90EF90DF90CF900895A5
:100340008C2DEECF882341F08150682F70E090E033
:1003500080E050E040E0B3CF0895611102C00C94FA
:100360006C0A6130E1F362E0FACF662319F061E0D4
:100370000C94A80A60E0FCCF4F925F926F927F923C
:100380008F929F92AF92BF92CF92DF92EF92FF92A5
:100390000F931F93CF93DF931F921F92CDB7DEB7BA
:1003A000C0900002D0900102E0900202F09003029F
:1003B000A7019601609101057091020580910305E6
:1003C0009091040565D5882341F0C0920105D09233
:1003D0000205E0920305F092040566E370E080E018
:1003E00090E049DF909300058093FF0443E050E0E4
:1003F000BE016F5F7F4F2EDF69817A8190E080E0E0
:10040000DFD520910C0230910D0240910E025091E7
:100410000F0242D55B016C01E0901002F0901102D6
:1004200000911202109113029B01AC01B701C801A7
:100430002FD587FD11C0E0901402F09015020091B5
:100440001602109117029501A601B701C8010BD73A
:10045000181614F075018601B701C801EED56B01BD
:100460007C01EFD38111A9C1C701B601A7D38111C6
:10047000A4C120E030E040E853E4C701B601F7D55D
:100480006B017C0120E030E0A90102D587FF98C113
:10049000C701B601905868D5619582E066DFC090CB
:1004A0000402D0900502E0900602F0900702A70136
:1004B00096016091F5047091F6048091F704909193
:1004C000F804E6D4882341F0C092F504D092F604F3
:1004D000E092F704F092F80467E370E080E090E0C7
:1004E000CADE9093F4048093F30443E050E0BE012D
:1004F0006F5F7F4FAFDE69817A8190E080E060D5E9
:10050000209118023091190240911A0250911B0259
:10051000C3D45B016C01E0901C02F0901D020091BD
:100520001E0210911F029B01AC01B701C801B0D49B
:1005300087FD11C0E0902002F0902102009122027C
:10054000109123029501A601B701C8018CD6181697
:1005500014F075018601B701C8016FD56B017C01EC
:1005600070D3811131C1C701B60128D381112CC1CB
:1005700020E030E040E853E4C701B60178D56B01D4
:100580007C0120E030E0A90183D487FF20C1C701AE
:10059000B6019058E9D4619581E0E7DEC090080289
:1005A000D0900902E0900A02F0900B02A701960198
:1005B0006091E9047091EA048091EB049091EC045D
:1005C00067D4882341F0C092E904D092EA04E09213
:1005D000EB04F092EC0468E370E080E090E04BDE26
:1005E0009093E8048093E70443E050E0BE016F5F1E
:1005F0007F4F30DE69817A8190E080E0E1D4209104
:10060000240230912502409126025091270244D4C1
:100610005B01082FC92ED0902802E0902902F090AB
:100620002A0210912B029B01482F592F6D2D7E2DF0
:100630008F2D912F2DD487FD16C0D0902C02E090E5
:100640002D02F0902E0210912F029501402F5C2D6B
:100650006D2D7E2D8F2D912F06D6181624F0DA2CB5
:10066000EB2CF02E1C2D6D2D7E2D8F2D912FE5D492
:100670006B017C01E6D28111AEC0C701B6019ED2EA
:100680008111A9C020E030E040E853E4C701B60181
:10069000EED46B017C0120E030E0A901F9D387FFA3
:1006A0009DC0C701B60190585FD4619580E05DDEC2
:1006B000C0904D05D0904E05E0904F05F09050054C
:1006C000C701B6017FD42B013C0120913802309143
:1006D000390240913A0250913B02DAD387FF82C03F
:1006E000F7FC80C08090300290903102A0903202DE
:1006F000B090330220E030E040E85FE360913402E4
:100700007091350280913602909137025CD39B0143
:10071000AC01C301B201A7D587FD68C010924D0599
:1007200010924E0510924F0510925005C501B4016C
:1007300084D46B017C0185D2811166C0C701B601EA
:100740003DD2811161C020E030E040E853E4C701B0
:10075000B6018DD46B017C0120E030E0A90198D373
:1007600087FF55C0C701B6019058FED3162F1195CB
:10077000612F85E0FADD612F84E0F7DD612F83E0F2
:10078000F4DD612F86E0F1DD612F87E0EEDD612F82
:100790008DE0EBDD0F900F90DF91CF911F910F91C6
:1007A000FF90EF90DF90CF90BF90AF909F908F9091
:1007B0007F906F905F904F900895C12CD12C76015F
:1007C000C701B601D1D369CEC12CD12C7601C701A6
:1007D000B601CAD3E1CEC12CD12C7601C701B60136
:1007E000C3D364CF812C912C540184CF8FEFC81ACE
:1007F000D80AE80AF80AC0924D05D0924E05E09258
:100800004F05F092500592CFC12CD12C7601C70133
:10081000B601AAD3162FACCFAF92BF92CF92DF9280
:10082000EF92FF921F93CF93DF9384E090E08FD1FC
:10083000C1EED4E0188E80E0A82E82E0B82EF5013B
:1008400080819181A281B38188A399A3AAA3BBA32C
:100850001D8EC12CD12C7601C394C98EDA8EEB8EFD
:10086000FC8E66E370E080E090E049DD9F8F8E8F24
:1008700011E01D8F10923505C0923605D0923705D4
:10088000E0923805F092390561E082E066DD109370
:100890003A051C86F50184819581A681B7818C8BF0
:1008A0009D8BAE8BBF8B198ACD86DE86EF86F88A4C
:1008B00067E370E080E090E022DD9B8B8A8B198BF0
:1008C00010923D05C0923E05D0923F05E092400552
:1008D000F092410561E081E040DD1093420518820D
:1008E000F50180859185A285B38588879987AA8738
:1008F000BB871D82C982DA82EB82FC8268E370E0EA
:1009000080E090E0FCDC9F838E831D831092450580
:10091000C0924605D0924705E0924805F0924905FD
:1009200061E080E01ADD10934A0510922D05C09217
:100930002E05D0922F05E0923005F092310561E04E
:1009400085E00BDD1093320510922505C092260537
:10095000D0922705E0922805F092290561E084E015
:10096000FCDC10932A051CAEC0921E05D0921F0518
:10097000E0922005F092210561E083E0EEDC109327
:1009800022051CAACDAADEAAEFAAF8AE61E086E095
:10099000E4DC19AF1CA6CDA6DEA6EFA6F8AA61E09E
:1009A00087E0DBDC19AB1CA2CDA2DEA2EFA2F8A689
:1009B00061E08DE0D2DC19A7DF91CF911F91FF900C
:1009C000EF90DF90CF90BF90AF9008958091F904A1
:1009D00081111DC081E08093F9048091FA04909107
:1009E000FB04A091FC04B091FD040197A105B105A1
:1009F00071F48091FE04882351F066E370E080E09A
:100A000090E039DC909300058093FF049BDC80919B
:100A10003505811103C081E0809335058091ED0497
:100A200081111DC081E08093ED048091EE049091CE
:100A3000EF04A091F004B091F1040197A105B10574
:100A400071F48091F204882351F067E370E080E054
:100A500090E011DC9093F4048093F30473DC8091B4
:100A60003D05811103C081E080933D058091E10443
:100A700081111DC081E08093E1048091E204909196
:100A8000E304A091E404B091E5040197A105B10548
:100A900071F48091E604882351F068E370E080E00F
:100AA00090E0E9DB9093E8048093E7044BDC8091CD
:100AB0004505811103C081E08093450580912D0596
:100AC000811103C081E080932D058091250581115E
:100AD00003C081E08093250580911D05811103C02D
:100AE00081E080931D0580911505811103C081E08F
:100AF0008093150580910D05811103C081E08093DD
:100B00000D0580910505811103C081E080930505E5
:100B1000089560E070E080E89FE7089560E070E08D
:100B200080E89FE7089560E070E080E89FEF089517
:100B300060E070E080E89FEF089560E070E080EC96
:100B40009FEF089560E070E080EC9FEF0895F5DF7F
:100B500060935D0570935E0580935F0590936005DB
:100B6000F1DF609351057093520580935305909384
:100B70005405CFDF6093590570935A0580935B0548
:100B800090935C05CBDF6093550570935605809379
:100B9000570590935805C7DF609361057093620510
:100BA0008093630590936405C3DF6093650570933C
:100BB000660580936705909368050895CF92DF924C
:100BC000EF92FF92CF936B017C01AC019B0160918E
:100BD000590570915A0580915B0590915C0558D13B
:100BE000C1E0882369F0A7019601609161057091C9
:100BF000620580916305909164054AD18111C0E03E
:100C00008C2FCF91FF90EF90DF90CF9008950F93AE
:100C10001F938B019C010027112720783F77011536
:100C2000110520483F4749F4AB01BC016F77772796
:100C300081E0452B462B472B09F480E01F910F9153
:100C40000895E5CF40E855E260E070E090E080E094
:100C500000C08130910571F01CF4892B39F00895A2
:100C60008230910559F0039769F0089526E08DE6EA
:100C700092E065C526E08AE093E0FBCF26E087EAB4
:100C800093E0F7CF26E084E494E0F3CF1F920F9235
:100C90000FB60F9211240BB60F922F933F934F93E1
:100CA0005F936F937F938F939F93AF93BF93EF93D4
:100CB000FF9387EE9FEF909325018093240134D01A
:100CC000FF91EF91BF91AF919F918F917F916F9124
:100CD0005F914F913F912F910F900BBE0F900FBEE0
:100CE0000F901F90189587EE9FEF909325018093AA
:100CF0002401A3E7B0E08C918E7F8C93E0E2F1E0D9
:100D000080818C7F8083E1E2F1E08081877E808337
:100D100080818360808380818B7F80838C918160E0
:100D20008C93089581E008958091610291E0980F7D
:100D300090936102882349F021E030E03093630210
:100D400020936202809361020895789415DBF894F1
:100D5000809161028150F6CFCF93DF9310926A05A4
:100D600010926905CED26EDFC0914102D09142024D
:100D70001982188251DDF894B6DF81E0288139812B
:100D8000232B09F080E08093690578947894809112
:100D90006905811107C01ADEF89490E080E0DF91C8
:100DA000CF91089581E028813981232B09F480E0D7
:100DB00080936A0590916A0581E0911180E08093AB
:100DC0006905B0DFE4CF5058BB27AA270ED0FAC17F
:100DD000EBD130F0F0D120F031F49F3F11F41EF44C
:100DE000E0C10EF4E095E7FBADC1E92FFCD180F343
:100DF000BA17620773078407950718F071F49EF518
:100E00002BC20EF4E0950B2EBA2FA02D0B01B901C9
:100E100090010C01CA01A0011124FF27591B99F070
:100E2000593F50F4503E68F11A16F040A22F232F7C
:100E3000342F4427585FF3CF469537952795A795CC
:100E4000F0405395C9F77EF41F16BA0B620B730B73
:100E5000840BBAF09150A1F0FF0FBB1F661F771FE4
:100E6000881FC2F70EC0BA0F621F731F841F48F499
:100E7000879577956795B795F7959E3F08F0B3CF1F
:100E80009395880F08F09927EE0F97958795089509
:100E900035D108F481E008950CD094C18CD140F094
:100EA00083D130F021F45F3F19F04CC15111D5C10D
:100EB00078C199D198F39923C9F35523B1F3951BC0
:100EC000550BBB27AA2762177307840738F09F5F6B
:100ED0005F4F220F331F441FAA1FA9F333D00E2EDA
:100EE0003AF0E0E830D091505040E695001CCAF747
:100EF00029D0FE2F27D0660F771F881FBB1F26170C
:100F000037074807AB07B0E809F0BB0B802DBF01DE
:100F1000FF2793585F4F2AF09E3F510568F012C19A
:100F20009CC15F3FECF3983EDCF38695779567951F
:100F3000B795F7959F5FC9F7880F911D969587958F
:100F400097F90895E1E0660F771F881FBB1F6217AE
:100F500073078407BA0720F0621B730B840BBA0B6C
:100F6000EE1F88F7E095089546D188F09F5790F0DE
:100F7000B92F9927B751A0F0D1F0660F771F881FBE
:100F8000991F1AF0BA95C9F712C0B13081F064D137
:100F9000B1E0089561C1672F782F8827B85F39F0D5
:100FA000B93FCCF3869577956795B395D9F73EF41D
:100FB00090958095709561957F4F8F4F9F4F0895C5
:100FC000E89409C097FB3EF49095809570956195E3
:100FD0007F4F8F4F9F4F9923A9F0F92F96E9BB2799
:100FE0009395F695879577956795B795F111F8CF15
:100FF000FAF4BB0F11F460FF1BC06F5F7F4F8F4F80
:101000009F4F16C0882311F096E911C0772321F075
:101010009EE8872F762F05C0662371F096E8862F0D
:1010200070E060E02AF09A95660F771F881FDAF764
:10103000880F9695879597F90895F7D080F09F3798
:1010400040F491110EF009C160E070E080E89FEB80
:10105000089526F41B16611D711D811D79C093C072
:10106000A3D018F011F0A7D038F49BC0F6C0E92F38
:10107000BAD0B0F35523C9F3E7FB621773078407AF
:101080009507A8F199F3E92FFF2788232AF03197D4
:10109000660F771F881FDAF7952F5527442332F004
:1010A00091505040220F331F441FD2F7BB27E91B3A
:1010B000F50B621B730B840BB109C1F222F4620FB2
:1010C000731F841FB11D31972AF0660F771F881F89
:1010D000BB1FEFCF915050405AF041F0882332F0BF
:1010E000660F771F881F91505040C1F793954BC0F2
:1010F0008695779567959F5FD9F7F8CF990F000888
:10110000550FAA0BE0E8FEEF16161706E807F907D9
:10111000C0F012161306E407F50798F0621B730B74
:10112000840B950B39F40A2661F0232B242B252BF5
:1011300021F408950A2609F4A140A6958FEF811D98
:10114000811D089597F99F6780E870E060E0089539
:10115000882371F4772321F09850872B762F07C0CE
:10116000662311F499270DC09051862B70E060E042
:101170002AF09A95660F771F881FDAF7880F9695E1
:10118000879597F908959F3F31F0915020F4879506
:1011900077956795B795880F911D9695879597F9DF
:1011A00008959FEF80EC089500240A941616170600
:1011B00018060906089500240A9412161306140648
:1011C00005060895092E0394000C11F4882352F0AB
:1011D000BB0F40F4BF2B11F460FF04C06F5F7F4F63
:1011E0008F4F9F4F089557FD9058440F551F59F04A
:1011F0005F3F71F04795880F97FB991F61F09F3F04
:1012000079F087950895121613061406551FF2CF2C
:101210004695F1DF08C0161617061806991FF1CF7C
:1012200086957105610508940895E5DFA0F0BEE795
:10123000B91788F4BB279F3860F41616B11D672FC5
:10124000782F8827985FF7CF869577956795B11D9A
:1012500093959639C8F30895E894BB2766277727B6
:10126000CB0197F908954ADF08F48FEF08951F9294
:101270000F920FB60F9211242F933F938F939F934A
:10128000AF93BF938091650290916602A09167022F
:10129000B09168023091640223E0230F2D3758F596
:1012A0000196A11DB11D2093640280936502909365
:1012B0006602A0936702B0936802809169029091E0
:1012C0006A02A0916B02B0916C020196A11DB11D42
:1012D0008093690290936A02A0936B02B0936C02B0
:1012E000BF91AF919F918F913F912F910F900FBE22
:1012F0000F901F90189526E8230F0296A11DB11D8F
:10130000D2CF789484B5826084BD84B5816084BD79
:1013100085B5826085BD85B5816085BDEEE6F0E06E
:10132000808181608083E1E8F0E0108280818260CA
:101330008083808181608083E0E8F0E0808181604B
:101340008083E1EBF0E0808184608083E0EBF0E07B
:10135000808181608083E1E9F0E080818260808328
:10136000808181608083E0E9F0E08081816080831A
:10137000E1EAF0E080818260808380818160808307
:10138000E0EAF0E0808181608083E1E2F1E0808149
:1013900082608083808181608083E0E2F1E08081EF
:1013A00081608083EAE7F0E08081846080838081CF
:1013B0008260808380818160808380818068808377
:1013C0001092C1000895863308F0865320917B0067
:1013D000982F9870277F922B90937B00209140024A
:1013E00090E4299F900111248770822B80937C00C8
:1013F00080917A00806480937A0080917A0086FDE3
:10140000FCCF8091780090917900089581508231CD
:1014100008F059C0E82FF0E08827EF5EF54F8F4FB6
:101420006DC4310A350A230A290A2D0A630A380ACB
:101430003E0A420A480A4C0A500A560A5A0A630AE5
:101440005E0A640A680A809180008F77809380002A
:101450000895809180008F7DF9CF80918000877FF3
:10146000F5CF84B58F7784BD089584B58F7DFBCF8C
:101470008091B0008F778093B00008958091B00084
:101480008F7DF9CF809190008F77809390000895A1
:10149000809190008F7DF9CF80919000877FF5CF6C
:1014A0008091A0008F778093A00008958091A00084
:1014B0008F7DF9CF8091A000877FF5CF80912001AB
:1014C0008F77809320010895809120018F7DF9CF3F
:1014D00080912001877FF5CFCF93DF9390E0FC01CF
:1014E000E65DFE4F249180599E4FFC018491882334
:1014F000C9F090E0880F991FFC01E053FE4FA591C1
:10150000B491FC01EA54FE4FC591D49161110DC014
:101510009FB7F8948C91209582238C9388812823FF
:1015200028839FBFDF91CF910895623051F49FB718
:10153000F8943C91822F809583238C93E8812E2B05
:10154000EFCF8FB7F894EC912E2B2C938FBFEACF6F
:101550001F93CF93DF93282F30E0F901EC51FF4F19
:101560008491F901E65DFE4FD491F901E059FE4FF7
:10157000C491CC23A1F0162F811148DFEC2FF0E0AD
:10158000EE0FFF1FEA54FE4FA591B4918FB7F89468
:10159000EC91111108C0D095DE23DC938FBFDF9151
:1015A000CF911F910895DE2BF8CFFC01918D228DF4
:1015B000892F90E0805C9F4F821B91098F73992740
:1015C0000895FC01918D828D981731F0828DE80F7E
:1015D000F11D858D90E008958FEF9FEF0895FC0138
:1015E000918D828D981761F0A28DAE0FBF2FB11D26
:1015F0005D968C91928D9F5F9F73928F90E008957E
:101600008FEF9FEF0895FC01538D448D252F30E01F
:10161000842F90E0821B930B541710F0CF960895FF
:1016200001970895FC01A48DA80FB92FB11DA35AED
:10163000BF4F2C91848D90E001968F739927848FF2
:10164000A689B7892C93A089B1898C918370806415
:101650008C93938D848D981306C00288F389E02DB6
:1016600080818F7D80830895CF93DF93EC01888DF7
:101670008823B1F0AA89BB89E889F9898C9185FD15
:1016800003C0808186FD0CC00FB607FCF7CF8C919C
:1016900085FFF2CF808185FFEDCFCE01C3DFEACF9A
:1016A000DF91CF910895EF92FF920F931F93CF9305
:1016B000DF93EC0181E0888F9B8D8C8D98131AC08D
:1016C000E889F989808185FF15C09FB7F894EE8974
:1016D000FF896083E889F9898081837080648083D1
:1016E0009FBF81E090E0DF91CF911F910F91FF901C
:1016F000EF900895F62E0B8D10E00F5F1F4F0F73C4
:101700001127E02E8C8D8E110BC00FB607FCFACF7F
:10171000E889F989808185FFF5CFCE0183DFF2CF9B
:10172000EB8DEC0FFD2FF11DE35AFF4FF0829FB7B9
:10173000F8940B8FEA89FB8980818062D0CFCF92A9
:10174000DF92EF92FF921F93CF93DF93EC016A0138
:101750007B01122FE889F98982E08083C11481EE30
:10176000D806E104F10499F060E079E08DE390E0BF
:10177000A7019601A1D2215031094109510956957D
:10178000479537952795211580E1380790F0E8892E
:10179000F989108260E874E88EE190E0A701960173
:1017A0008BD22150310941095109569547953795FA
:1017B0002795EC85FD853083EE85FF852083188E87
:1017C000EC89FD891083EA89FB89808180618083AF
:1017D000EA89FB89808188608083EA89FB8980812E
:1017E00080688083EA89FB8980818F7D8083DF9197
:1017F000CF911F91FF90EF90DF90CF9008951F92AF
:101800000F920FB60F9211240BB60F922F938F9356
:101810009F93EF93FF93E0917D02F0917E02808190
:10182000E0918302F091840282FD1DC0908180913D
:1018300086028F5F8F7320918702821741F0E091BB
:101840008602F0E0E359FD4F958F80938602FF9169
:10185000EF919F918F912F910F900BBE0F900FBE24
:101860000F901F9018958081F2CF1F920F920FB6A4
:101870000F9211240BB60F922F933F934F935F93C8
:101880006F937F938F939F93AF93BF93EF93FF9348
:101890008DE692E0C7DEFF91EF91BF91AF919F91EE
:1018A0008F917F916F915F914F913F912F910F9009
:1018B0000BBE0F900FBE0F901F901895EDE6F2E053
:1018C0001382128288EE93E0A0E0B0E084839583D7
:1018D000A683B78387E492E09183808385EC90E0D0
:1018E0009587848784EC90E09787868780EC90E0EA
:1018F000918B808B81EC90E0938B828B82EC90E0DB
:10190000958B848B86EC90E0978B868B118E128E54
:10191000138E148E08951F920F920FB60F921124FA
:101920000BB60F922F938F939F93EF93FF93E091BA
:101930001A03F0911B038081E0912003F0912103B1
:1019400082FD1DC09081809123038F5F8F73209152
:101950002403821741F0E0912303F0E0E65FFC4F9F
:10196000958F80932303FF91EF919F918F912F91FA
:101970000F900BBE0F900FBE0F901F901895808197
:10198000F2CF1F920F920FB60F9211240BB60F9247
:101990002F933F934F935F936F937F938F939F9377
:1019A000AF93BF93EF93FF938AE093E03BDEFF9109
:1019B000EF91BF91AF919F918F917F916F915F91C7
:1019C0004F913F912F910F900BBE0F900FBE0F9034
:1019D0001F901895EAE0F3E01382128288EE93E0FC
:1019E000A0E0B0E084839583A683B78387E492E088
:1019F000918380838DEC90E0958784878CEC90E0D8
:101A00009787868788EC90E0918B808B89EC90E0BB
:101A1000938B828B8AEC90E0958B848B8EEC90E09C
:101A2000978B868B118E128E138E148E08951F92B3
:101A30000F920FB60F9211240BB60F922F938F9324
:101A40009F93EF93FF93E091B703F091B8038081E8
:101A5000E091BD03F091BE0382FD1DC09081809195
:101A6000C0038F5F8F732091C103821741F0E09113
:101A7000C003F0E0E955FC4F958F8093C003FF91C0
:101A8000EF919F918F912F910F900BBE0F900FBEF2
:101A90000F901F9018958081F2CF1F920F920FB672
:101AA0000F9211240BB60F922F933F934F935F9396
:101AB0006F937F938F939F93AF93BF93EF93FF9316
:101AC00087EA93E0AFDDFF91EF91BF91AF919F91D6
:101AD0008F917F916F915F914F913F912F910F90D7
:101AE0000BBE0F900FBE0F901F901895E7EAF3E022
:101AF0001382128288EE93E0A0E0B0E084839583A5
:101B0000A683B78387E492E09183808385ED90E09C
:101B10009587848784ED90E09787868780ED90E0B5
:101B2000918B808B81ED90E0938B828B82ED90E0A6
:101B3000958B848B86ED90E0978B868B118E128E21
:101B4000138E148E08951F920F920FB60F921124C8
:101B50000BB60F922F938F939F93EF93FF93E09188
:101B60005404F09155048081E0915A04F0915B0493
:101B700082FD1DC0908180915D048F5F8F732091E5
:101B80005E04821741F0E0915D04F0E0EC5BFB4FF6
:101B9000958F80935D04FF91EF919F918F912F918D
:101BA0000F900BBE0F900FBE0F901F901895808165
:101BB000F2CF1F920F920FB60F9211240BB60F9215
:101BC0002F933F934F935F936F937F938F939F9345
:101BD000AF93BF93EF93FF9384E494E023DDFF91F1
:101BE000EF91BF91AF919F918F917F916F915F9195
:101BF0004F913F912F910F900BBE0F900FBE0F9002
:101C00001F901895E4E4F4E01382128288EE93E0CA
:101C1000A0E0B0E084839583A683B78387E492E055
:101C20009183808385E391E09587848784E391E0C5
:101C30009787868780E391E0918B808B81E391E0A9
:101C4000938B828B82E391E0958B848B86E391E08A
:101C5000978B868B118E128E138E148E0895AF92F1
:101C6000BF92CF92DF92EF92FF920F931F93CF9389
:101C7000DF936C017B018B01040F151FEB015E01EB
:101C8000AE18BF08C017D10759F06991D601ED9180
:101C9000FC910190F081E02DC6011995892B79F70F
:101CA000C501DF91CF911F910F91FF90EF90DF90D1
:101CB000CF90BF90AF900895A1E21A2EAA1BBB1B34
:101CC000FD010DC0AA1FBB1FEE1FFF1FA217B30708
:101CD000E407F50720F0A21BB30BE40BF50B661F1E
:101CE000771F881F991F1A9469F7609570958095E2
:101CF00090959B01AC01BD01CF010895EE0FFF1F30
:101D0000881F8BBF0790F691E02D1994F894FFCFB0
:101D1000000080BF000080BF000080BF00007A4448
:101D20000000803F0000000000007A440000803F77
:101D30000000000000007A440000803F0000000026
:101D40000000803F000000400000803F00000000D5
:101D5000015F0200000000530B2F0E030B340BD564
:061D60000AEF0AE10A008F
:00000001FF
